:020000040800F2
:10000000780600208901000891010008930100088A
:100010009501000897010008990100080000000000
:100020000000000000000000000000009B0100082C
:100030009D010008000000009F010008A1010008C8
:10004000A3010008A3010008A3010008A301000800
:10005000A3010008A3010008A3010008A3010008F0
:10006000A3010008A3010008A3010008A3010008E0
:10007000A3010008A3010008A3010008A3010008D0
:10008000A3010008A3010008A3010008A3010008C0
:10009000A3010008A3010008A3010008A3010008B0
:1000A000A3010008A3010008A3010008A3010008A0
:1000B000A3010008A301000800000000A30100083C
:1000C000A30100080000000000000000A3010008D8
:1000D00000000000A3010008A301000800000000C8
:1000E000A3010008A3010008A301000800F002F822
:1000F00000F03AF80AA090E8000C82448344AAF188
:100100000107DA4501D100F02FF8AFF2090EBAE885
:100110000F0013F0010F18BFFB1A43F0010318473B
:100120002408000044080000103A24BF78C878C1B1
:10013000FAD8520724BF30C830C144BF04680C60ED
:10014000704700000023002400250026103A28BF35
:1001500078C1FBD8520728BF30C148BF0B60704739
:100160001FB51FBD10B510BD00F031F81146FFF7E7
:10017000F7FF00F0DCFB00F04FF803B4FFF7F2FFED
:1001800003BC00F057F800000948804709480047C1
:10019000FEE7FEE7FEE7FEE7FEE7FEE7FEE7FEE737
:1001A000FEE7FEE704480549054A064B7047000094
:1001B00091060008ED000008780000207806002075
:1001C000780200207802002070477047704775461B
:1001D00000F02CF8AE4605006946534620F00700B3
:1001E000854618B020B5FFF7DDFFBDE820404FF091
:1001F00000064FF000074FF000084FF0000B21F011
:100200000701AC46ACE8C009ACE8C009ACE8C009DD
:10021000ACE8C0098D46704710B50446AFF30080C6
:100220002046BDE81040FFF7A8BF00000048704717
:100230001400002001491820ABBEFEE72600020092
:10024000704710B500F0DCF8002000F025F9002020
:1002500000F040F9002000F031F9012000F028F909
:1002600000BF212000F0F2F80028FAD0002000F0B2
:100270003DF900BF00F008F90028FBD110BD2DE9C1
:10028000F04102460025002600200023002400271C
:1002900091F803C00CF00F0591F803C00CF0100C9E
:1002A000BCF1000F03D091F802C04CEA050591F8AB
:1002B00000C0BCF1000F31D0146800202BE04FF0DB
:1002C000010C0CFA00F3B1F800C00CEA03069E42E0
:1002D00020D183004FF00F0C0CFA03F7BC4305FA52
:1002E00003FC4CEA040491F803C0BCF1280F06D1CA
:1002F0004FF0010C0CFA00FCC2F814C00AE091F8AF
:1003000003C0BCF1480F05D14FF0010C0CFA00FC02
:10031000C2F810C0401C0828D1D31460B1F800C046
:10032000BCF1FF0F34DD546800202EE000F1080C12
:100330004FF0010808FA0CF3B1F800C00CEA03060C
:100340009E4221D183004FF00F0C0CFA03F7BC43FF
:1003500005FA03FC4CEA040491F803C0BCF1280F31
:1003600005D100F1080C08FA0CF8C2F8148091F8D5
:1003700003C0BCF1480F07D100F1080C4FF0010891
:1003800008FA0CF8C2F81080401C0828CED354603C
:10039000BDE8F08108B50121042000F021F8042017
:1003A000ADF8000018208DF8030003208DF802003E
:1003B00069460248FFF763FF08BD000000080140DE
:1003C00029B1064AD2690243044BDA6104E0034AC8
:1003D000D2698243014BDA6170470000001002408D
:1003E00029B1064A92690243044B9A6104E0034A28
:1003F00092698243014B9A617047000000100240ED
:100400000F48006840F001000D4908600846406848
:100410000C4908400A494860084600680A490840F3
:10042000074908600846006820F4802008600846F4
:10043000406820F4FE0048604FF41F008860704759
:10044000001002400000FFF8FFFFF6FE10B5014665
:100450000022002300204A11012A02D1094C2368FE
:1004600006E0022A02D1074C236A01E0054C636AC8
:1004700001F01F02012494401C400CB1012000E057
:10048000002010BD001002400248406800F00C003F
:10049000704700000010024001460020034A5068E7
:1004A00020F0F00008435060704700000010024048
:1004B00001490860704700000000424201460020E8
:1004C000034A506820F4E060084350607047000021
:1004D0000010024001460020034A506820F460509A
:1004E00040EAC10050607047001002400146002001
:1004F000034A506820F00300084350607047000032
:100500000010024010B500F001F810BD0CB500203D
:10051000019000903348006840F480303149086011
:1005200000BF3048006800F4003000900198401C83
:100530000190009818B90198B0F5A06FF1D1294841
:10054000006800F4003010B10120009001E00020AC
:1005500000900098012843D12348006840F0100023
:10056000214908600846006820F00300086008463A
:10057000006840F0020008601A4840681949486065
:100580000846406848600846406840F4806048601B
:100590000846406820F47C1048600846406840F4F3
:1005A000E81048600846006840F08070086000BFAE
:1005B0000C48006800F000700028F9D00948406835
:1005C00020F00300074948600846406840F00200F8
:1005D000486000BF0348406800F00C000828F9D1CB
:1005E0000CBD0000001002400020024010B50021A8
:1005F00000200022214B5B6803F00C0121B104298B
:1006000006D0082928D107E01D4B1E4C236027E0A7
:100610001B4B1C4C236023E0184B5B6803F47010E9
:10062000164B5B6803F48032022303EB904022B93F
:10063000154B4343134C23600DE0104B5B6803F4F0
:10064000003323B1104B43430E4C236003E00C4BAB
:1006500043430C4C236003E0094B0A4C236000BF6A
:1006600000BF064B5B68C3F30313084CE15C054B0A
:100670001B68CB40034C236010BD000000100240FB
:1006800000127A000000002000093D000400002054
:1006900010B51348006840F0010011490860084691
:1006A0004068104908400E494860084600680E49F5
:1006B00008400B4908600846006820F48020086064
:1006C0000846406820F4FE0048604FF41F00886030
:1006D000FFF718FF4FF000600449086010BD0000EC
:1006E000001002400000FFF8FFFFF6FE08ED00E0FA
:1006F00000B587B00121C802FFF772FE04A800F020
:100700000DF90121214800F043F801210846FFF7C7
:1007100057FE41F63F70ADF81400C010ADF8100060
:100720000020ADF81600ADF812008DF8180004A9ED
:100730004FF0804000F0A0F804A94FF0804000F096
:100740009BF801221146900700F03DF8012188072F
:1007500000F01EF86020ADF800000120ADF80200A6
:100760000020ADF8080040F69F70ADF8060069461D
:100770004FF0804000F030F80121880700F014F8B5
:100780000121880700F004F807B000BD002C0140EB
:1007900021B1028842F00102028004E002884FF693
:1007A000FE731A400280704731B1B0F8442042F421
:1007B0000042A0F8442005E0B0F84420C2F30E0245
:1007C000A0F8442070471AB183890B43838102E06B
:1007D00083898B438381704770B5002400220023F6
:1007E000058C4FF6FF6635400584028C8388848B28
:1007F0004FF68F752C404FF6FC752C400D882C431E
:100800004FF6FF552A400D894FF6FF7606EA05257B
:100810002A434D8806EA05252A43154DA84202D0F1
:10082000144DA8421DD14FF2FF752A404D894FF655
:10083000FF7606EA05252A434FF6FF352A408D88C4
:1008400006EA05252A434EF6FF752B404DF6FF7547
:100850002B408D8906EA05152B43CD8906EA05153F
:100860002B4383808483CD888587028470BD0000FC
:10087000002C014000340140002202881D4B9842A8
:100880000ED01D4B98420BD0B0F1804F08D01B4BBF
:10089000984205D01A4B984202D01A4B984204D184
:1008A0004FF68F731A404B881A43174B984207D064
:1008B000164B984204D04FF6FF431A40CB881A4398
:1008C00002808B8883850B8803850A4B98420BD066
:1008D000094B984208D00E4B984205D00D4B9842D8
:1008E00002D00D4B984201D10B7A038601238382FB
:1008F00070470000002C014000340140000400401B
:1009000000080040000C00400010004000140040AF
:100910000040014000440140004801404FF6FF7193
:10092000818000210180C180418001727047FFF702
:1009300088FCFFF75BFEFFF72DFDFFF7D9FE00BF38
:10094000FEE7000064090008000000201400000019
:10095000280100087809000814000020640600003F
:100960004401000800A24A0400000000000000004A
:08097000010203040607080957
:04000005080000ED02
:00000001FF
