:020000040800F2
:10000000780600208901000891010008930100088A
:100010009501000897010008990100080000000000
:100020000000000000000000000000009B0100082C
:100030009D010008000000009F010008A1010008C8
:10004000A3010008A3010008A3010008A301000800
:10005000A3010008A3010008A3010008A3010008F0
:10006000A3010008A3010008A3010008A3010008E0
:10007000A3010008A3010008A3010008A3010008D0
:10008000A3010008A3010008A3010008A3010008C0
:10009000A3010008A3010008A3010008A3010008B0
:1000A000A3010008A3010008A3010008A3010008A0
:1000B000A3010008A3010008A3010008A301000890
:1000C000A3010008A3010008A3010008A301000880
:1000D000A3010008A3010008A3010008A301000870
:1000E000A3010008A3010008A301000800F002F822
:1000F00000F03AF80AA090E8000C82448344AAF188
:100100000107DA4501D100F02FF8AFF2090EBAE885
:100110000F0013F0010F18BFFB1A43F0010318473B
:100120002006000040060000103A24BF78C878C1BD
:10013000FAD8520724BF30C830C144BF04680C60ED
:10014000704700000023002400250026103A28BF35
:1001500078C1FBD8520728BF30C148BF0B60704739
:100160001FB51FBD10B510BD00F031F81146FFF7E7
:10017000F7FF00F0C9FA00F04FF803B4FFF7F2FF01
:1001800003BC00F057F800000948804709480047C1
:10019000FEE7FEE7FEE7FEE7FEE7FEE7FEE7FEE737
:1001A000FEE7FEE704480549054A064B7047000094
:1001B000A9060008ED00000878000020780600205D
:1001C000780200207802002070477047704775461B
:1001D00000F02CF8AE4605006946534620F00700B3
:1001E000854618B020B5FFF7DDFFBDE820404FF091
:1001F00000064FF000074FF000084FF0000B21F011
:100200000701AC46ACE8C009ACE8C009ACE8C009DD
:10021000ACE8C0098D46704710B50446AFF30080C6
:100220002046BDE81040FFF7A8BF00000048704717
:100230001400002001491820ABBEFEE72600020092
:10024000704710B500F0E8F8002000F031F94FF4E5
:10025000806000F04BF94FF4806000F03BF9012022
:1002600000F032F900BF212000F0FCF80028FAD09D
:10027000002000F047F900BF00F012F90028FBD180
:1002800010BD000008B50121182000F0B5F8482085
:100290008DF803000120ADF800006946084800F021
:1002A00013F810208DF803004002ADF80000022082
:1002B0008DF802006946034800F006F808BD00000A
:1002C000000C0140001001402DE9F04102460025DC
:1002D0000026002000230024002791F803C00CF022
:1002E0000F0591F803C00CF0100CBCF1000F03D007
:1002F00091F802C04CEA050591F800C0BCF1000F6E
:1003000031D0146800202BE04FF0010C0CFA00F300
:10031000B1F800C00CEA03069E4220D183004FF0E2
:100320000F0C0CFA03F7BC4305FA03FC4CEA040477
:1003300091F803C0BCF1280F06D14FF0010C0CFA64
:1003400000FCC2F814C00AE091F803C0BCF1480FE9
:1003500005D14FF0010C0CFA00FCC2F810C0401C93
:100360000828D1D31460B1F800C0BCF1FF0F34DD10
:10037000546800202EE000F1080C4FF0010808FA44
:100380000CF3B1F800C00CEA03069E4221D18300B1
:100390004FF00F0C0CFA03F7BC4305FA03FC4CEAD0
:1003A000040491F803C0BCF1280F05D100F1080C3A
:1003B00008FA0CF8C2F8148091F803C0BCF1480F99
:1003C00007D100F1080C4FF0010808FA0CF8C2F848
:1003D0001080401C0828CED35460BDE8F08102464E
:1003E000002093680B400BB1012000E00020704713
:1003F000416170470161704729B1064A9269024321
:10040000044B9A6104E0034A92698243014B9A616A
:1004100070470000001002400F48006840F00100E3
:100420000D490860084640680C4908400A49486080
:10043000084600680A4908400749086008460068FD
:1004400020F4802008600846406820F4FE004860E0
:100450004FF41F0088607047001002400000FFF852
:10046000FFFFF6FE10B501460022002300204A11CE
:10047000012A02D1094C236806E0022A02D1074C66
:10048000236A01E0054C636A01F01F0201249440D5
:100490001C400CB1012000E0002010BD0010024003
:1004A0000248406800F00C00704700000010024055
:1004B00001460020034A506820F0F00008435060D5
:1004C00070470000001002400149086070470000BA
:1004D0000000424201460020034A506820F4E060D8
:1004E00008435060704700000010024001460020A1
:1004F000034A506820F4605040EAC10050607047E1
:100500000010024001460020034A506820F003001A
:1005100008435060704700000010024010B500F022
:1005200001F810BD0CB50020019000903348006820
:1005300040F480303149086000BF3048006800F462
:10054000003000900198401C0190009818B9019863
:10055000B0F5A06FF1D12948006800F4003010B167
:100560000120009001E0002000900098012843D174
:100570002348006840F010002149086008460068E0
:1005800020F0030008600846006840F002000860A0
:100590001A4840681949486008464068486008465B
:1005A000406840F4806048600846406820F47C1051
:1005B00048600846406840F4E81048600846006813
:1005C00040F08070086000BF0C48006800F00070C8
:1005D0000028F9D00948406820F003000749486026
:1005E0000846406840F00200486000BF0348406889
:1005F00000F00C000828F9D10CBD000000100240EA
:100600000020024010B5002100200022214B5B6831
:1006100003F00C0121B1042906D0082928D107E0F4
:100620001D4B1E4C236027E01B4B1C4C236023E01A
:10063000184B5B6803F47010164B5B6803F4803250
:10064000022303EB904022B9154B4343134C236024
:100650000DE0104B5B6803F4003323B1104B4343B0
:100660000E4C236003E00C4B43430C4C236003E02F
:10067000094B0A4C236000BF00BF064B5B68C3F305
:100680000313084CE15C054B1B68CB40034C236013
:1006900010BD00000010024000127A00000000208F
:1006A00000093D000400002010B51348006840F028
:1006B00001001149086008464068104908400E4989
:1006C0004860084600680E4908400B490860084623
:1006D000006820F4802008600846406820F4FE008E
:1006E00048604FF41F008860FFF718FF4FF000606C
:1006F0000449086010BD0000001002400000FFF82F
:10070000FFFFF6FE08ED00E0FFF79BFDFFF77AFF25
:10071000FFF7B8FD0FE001210748FFF760FE28B999
:100720004FF400510548FFF763FE04E04FF4005119
:100730000248FFF75FFEEEE7000C014000100140A9
:1007400060070008000000201400000028010008D5
:10075000740700081400002064060000440100082B
:1007600000A24A040000000000000000010203048F
:040770000607080967
:04000005080000ED02
:00000001FF
