:020000040800F2
:1000000078090020C9010008D1010008D3010008C7
:10001000D5010008D7010008D90100080000000040
:10002000000000000000000000000000DB010008EC
:10003000DD01000800000000DF010008E101000808
:10004000E3010008E3010008E3010008E301000800
:10005000E3010008E3010008E3010008E3010008F0
:10006000E3010008E3010008E3010008E3010008E0
:10007000E3010008E3010008E3010008E3010008D0
:10008000E3010008E3010008E3010008E3010008C0
:10009000E3010008E3010008E3010008E3010008B0
:1000A000E3010008E3010008E3010008E3010008A0
:1000B000E3010008E3010008E3010008E301000890
:1000C000E3010008E3010008E3010008E301000880
:1000D000E3010008E3010008E3010008E301000870
:1000E000E3010008E3010008E301000800F002F862
:1000F00000F05AF80AA090E8000C82448344AAF168
:100100000107DA4501D100F04FF8AFF2090EBAE865
:100110000F0013F0010F18BFFB1A43F0010318473B
:1001200014080000340800000A444FF0000C10F8D6
:10013000013B13F0070408BF10F8014B1D1108BF65
:1001400010F8015B641E05D010F8016B641E01F805
:10015000016BF9D113F0080F1EBF10F8014BAD1C55
:100160000C1B09D16D1E58BF01F801CBFAD505E073
:1001700014F8016B01F8016B6D1EF9D59142D6D3CD
:10018000704700000023002400250026103A28BFF5
:1001900078C1FBD8520728BF30C148BF0B607047F9
:1001A0001FB51FBD10B510BD00F031F81146FFF7A7
:1001B000F7FF00F015FB00F04FF803B4FFF7F2FF74
:1001C00003BC00F057F80000094880470948004781
:1001D000FEE7FEE7FEE7FEE7FEE7FEE7FEE7FEE7F7
:1001E000FEE7FEE704480549054A064B7047000054
:1001F00081070008ED00000878030020780900203E
:1002000078050020780500207047704770477546D4
:1002100000F02CF8AE4605006946534620F0070072
:10022000854618B020B5FFF7DDFFBDE820404FF050
:1002300000064FF000074FF000084FF0000B21F0D0
:100240000701AC46ACE8C009ACE8C009ACE8C0099D
:10025000ACE8C0098D46704710B50446AFF3008086
:100260002046BDE81040FFF7A8BF000000487047D7
:100270001803002001491820ABBEFEE7260002004B
:10028000704710B500F0EEF8002000F037F94FF499
:10029000806000F051F94FF4806000F041F90120D6
:1002A00000F038F900BF212000F002F90028FAD050
:1002B000002000F04DF900BF00F018F90028FBD134
:1002C00010BD002107E0002200E0521C40F6BF23D1
:1002D0009A42FAD3491C8142F5D3704708B50121EF
:1002E0000C2000F0AFF810208DF80300FF20ADF8CF
:1002F000000002208DF802006946094800F014F859
:1003000010208DF803004FF47F40ADF8000002206C
:100310008DF802006946034800F006F808BD0000A9
:1003200000080140000C01402DE9F0410246002583
:100330000026002000230024002791F803C00CF0C1
:100340000F0591F803C00CF0100CBCF1000F03D0A6
:1003500091F802C04CEA050591F800C0BCF1000F0D
:1003600031D0146800202BE04FF0010C0CFA00F3A0
:10037000B1F800C00CEA03069E4220D183004FF082
:100380000F0C0CFA03F7BC4305FA03FC4CEA040417
:1003900091F803C0BCF1280F06D14FF0010C0CFA04
:1003A00000FCC2F814C00AE091F803C0BCF1480F89
:1003B00005D14FF0010C0CFA00FCC2F810C0401C33
:1003C0000828D1D31460B1F800C0BCF1FF0F34DDB0
:1003D000546800202EE000F1080C4FF0010808FAE4
:1003E0000CF3B1F800C00CEA03069E4221D1830051
:1003F0004FF00F0C0CFA03F7BC4305FA03FC4CEA70
:10040000040491F803C0BCF1280F05D100F1080CD9
:1004100008FA0CF8C2F8148091F803C0BCF1480F38
:1004200007D100F1080C4FF0010808FA0CF8C2F8E7
:100430001080401C0828CED35460BDE8F081C16014
:100440007047000029B1064A92690243044B9A6141
:1004500004E0034A92698243014B9A6170470000AD
:10046000001002400F48006840F001000D4908608C
:10047000084640680C4908400A4948600846006838
:100480000A490840074908600846006820F48020AF
:1004900008600846406820F4FE0048604FF41F00E2
:1004A00088607047001002400000FFF8FFFFF6FE72
:1004B00010B501460022002300204A11012A02D172
:1004C000094C236806E0022A02D1074C236A01E0A6
:1004D000054C636A01F01F02012494401C400CB1DA
:1004E000012000E0002010BD0010024002484068DA
:1004F00000F00C0070470000001002400146002090
:10050000034A506820F0F000084350607047000034
:10051000001002400149086070470000000042429C
:1005200001460020034A506820F4E0600843506010
:10053000704700000010024001460020034A506846
:1005400020F4605040EAC100506070470010024043
:1005500001460020034A506820F003000843506021
:10056000704700000010024010B5002400BF10E0EA
:100570000120A04081B20A48FFF761FF09480088C6
:1005800081B20948FFF75BFF0120FFF79AFE601C6C
:10059000C4B2082CECDB6420FFF793FE10BD000012
:1005A0000008014000030020000C014070B5054622
:1005B000322617E0002400BF10E00120A04081B2E5
:1005C0000A48FFF73CFF35F8240081B20848FFF7DE
:1005D00036FF0120FFF775FE601CC4B2082CECDB6F
:1005E000761E00BF002EE5D170BD0000000801405E
:1005F000000C014010B500F001F810BD0CB5002052
:10060000019000903348006840F480303149086020
:1006100000BF3048006800F4003000900198401C92
:100620000190009818B90198B0F5A06FF1D1294850
:10063000006800F4003010B10120009001E00020BB
:1006400000900098012843D12348006840F0100032
:10065000214908600846006820F003000860084649
:10066000006840F0020008601A4840681949486074
:100670000846406848600846406840F4806048602A
:100680000846406820F47C1048600846406840F402
:10069000E81048600846006840F08070086000BFBD
:1006A0000C48006800F000700028F9D00948406844
:1006B00020F00300074948600846406840F0020007
:1006C000486000BF0348406800F00C000828F9D1DA
:1006D0000CBD0000001002400020024010B50021B7
:1006E00000200022214B5B6803F00C0121B104299A
:1006F00006D0082928D107E01D4B1E4C236027E0B7
:100700001B4B1C4C236023E0184B5B6803F47010F8
:10071000164B5B6803F48032022303EB904022B94E
:10072000154B4343134C23600DE0104B5B6803F4FF
:10073000003323B1104B43430E4C236003E00C4BBA
:1007400043430C4C236003E0094B0A4C236000BF79
:1007500000BF064B5B68C3F30313084CE15C054B19
:100760001B68CB40034C236010BD0000001002400A
:1007700000127A000403002000093D000803002055
:1007800010B51348006840F00100114908600846A0
:100790004068104908400E494860084600680E4904
:1007A00008400B4908600846006820F48020086073
:1007B0000846406820F4FE0048604FF41F0088603F
:1007C000FFF718FF4FF000600449086010BD0000FB
:1007D000001002400000FFF8FFFFF6FE08ED00E009
:1007E000FFF74FFDFFF77AFFFFF778FD72E03A4819
:1007F000FFF7DCFEFFF7B8FE3848FFF7D7FEFFF73C
:10080000B3FE3748FFF7D2FEFFF7AEFE3548FFF7DD
:10081000CDFEFFF7A9FE3448FFF7C8FEFFF7A4FEA0
:100820003248FFF7C3FEFFF79FFE3148FFF7BEFED9
:10083000FFF79AFE2F48FFF7B9FEFFF795FE2E4807
:10084000FFF7B4FEFFF790FE2C48FFF7AFFEFFF76F
:100850008BFE2B48FFF7AAFEFFF786FE2948FFF71D
:10086000A5FEFFF781FE2848FFF7A0FEFFF77CFEFC
:100870002648FFF79BFEFFF777FE2548FFF796FE19
:10088000FFF772FE2348FFF791FEFFF76DFE224847
:10089000FFF78CFEFFF768FE2048FFF787FEFFF7A3
:1008A00063FE1F48FFF782FEFFF75EFE1D48FFF75D
:1008B0007DFEFFF759FE1C48FFF778FEFFF754FE58
:1008C0001A48FFF773FEFFF74FFE1948FFF76EFE59
:1008D000FFF74AFE8BE700002000002040000020C8
:1008E0006000002080000020A0000020C000002048
:1008F000E000002000010020200100204001002035
:100900006001002080010020A0010020C001002023
:10091000E001002000020020200200204002002010
:100920006002002080020020A0020020C0020020FF
:10093000E002002054090008000000201803000015
:1009400028010008380A000818030020600600008B
:100950008401000811323C690481A9145A810409F8
:100960001624DA030CE9109AC3105A37085A39547E
:1009700032833201DA387429042914291C5A80047C
:100980000A15FC0C815AC0182904290C690429682D
:1009900069B0323F9A30C872820A15E70481DAF9E9
:1009A0000469C09AC7D0323332075A131029185A33
:1009B0003E7409120481292872185A2404291469E2
:1009C000045A38B4691C32129A34205AC38C294410
:1009D0006914290C2914291C9A0168290429109AE0
:1009E0000388E940295C321932800A15C24029EC9B
:1009F00069E4293C2908294C290C295C6928B2831F
:100A00000A15E704A9ECA9C041299C5A7E145A99F9
:100A1000045ADB18A9402918A914290C2914695073
:100A2000E920A90432FF84A24A040009000102035C
:080A300004060708090000009C
:04000005080000ED02
:00000001FF
