:020000040800F2
:100000008006002091010008990100089B0100086A
:100010009D0100089F010008A101000800000000E8
:10002000000000000000000000000000A301000824
:10003000A501000800000000A7010008550A0008FB
:10004000AB010008AB010008AB010008AB010008E0
:10005000AB010008AB010008AB010008AB010008D0
:10006000AB010008AB010008AB010008AB010008C0
:10007000AB010008AB010008AB010008AB010008B0
:10008000AB010008AB010008AB010008AB010008A0
:10009000AB010008AB010008AB010008AB01000890
:1000A000AB010008AB010008AB010008AB01000880
:1000B000AB010008AB010008AB010008AB01000870
:1000C000AB010008AB010008AB010008AB01000860
:1000D000AB010008AB010008AB010008AB01000850
:1000E000AB010008AB010008AB01000800F002F80A
:1000F00000F03FF80AA090E8000C82448344AAF183
:100100000107DA4501D100F034F8AFF2090EBAE880
:100110000F0013F0010F18BFFB1A43F0010318473B
:10012000100B0000300B0000103A24BF78C878C1D3
:10013000FAD8520724BF30C830C144BF04680C60ED
:10014000704700000023002400250026103A28BF35
:1001500078C1FBD8520728BF30C148BF0B60704739
:10016000642900F07D80002070471FB51FBD10B5C9
:1001700010BD00F02AF91146FFF7F7FF00F0F8FC78
:1001800000F048F903B4FFF7F2FF03BC00F050F9A8
:100190000948804709480047FEE7FEE7FEE7FEE71B
:1001A000FEE7FEE7FEE7FEE7FEE7FEE70448054957
:1001B000054A064B70470000110B0008ED000008CF
:1001C00080000020800600208002002080020020A5
:1001D0000FB41CB5074B06AA7B44694600900598EE
:1001E00000F0DBF80020694600F0EAF81CBC5DF87E
:1001F00014FB0000E50100002DE9F0410E46044625
:10020000002020622046E168884730B3252805D0C9
:10021000D4E901219047206A401CF2E7E1682046BA
:1002200000278847050018D0A5F14100192802D8F9
:1002300020354FF400673246294620462760FFF7F5
:100240008FFF40B1012804D0F61D26F007060836BE
:10025000D8E7361DD6E72846DAE7206ABDE8F08100
:100260002DE9F0410646002410687529314616A58F
:1002700010D0AFF30080002802DA404213A507E057
:1002800031688A0701D512A502E0490704D511A5F6
:10029000012401E0AFF3008000210A2206F12407C7
:1002A00009E0B0FBF2FCB0FBF2F302FB1C003030C3
:1002B00078541846491C0028F3D123462A46304674
:1002C000BDE8F04100F00BB8000000002D00000078
:1002D0002B000000200000007047704770472DE998
:1002E000F0470D4699469246044600F124080168FD
:1002F000880604D5E06921F01001216000E00120AA
:10030000A84201DD471B00E00027A1697A1902EB32
:100310000900081AA0612078C00602D42046AFF375
:100320000080002608E0D4E901211AF80600904771
:10033000206A401C761C20624E45F4DB2078C00603
:100340000AD52046AFF3008006E0D4E90121302031
:100350009047206A401C2062381EA7F10107F4DC98
:1003600007E0D4E9012118F805009047206A401CF5
:100370002062281EA5F10105F3DC2046AFF30080C2
:100380002078000602D50220BDE8F0870120FBE7B7
:1003900001694A1C02610878704700B58FB0CDE949
:1003A00001310021059105497944CDE90310114639
:1003B0006846FFF721FF0FB000BD0000E5FFFFFF1B
:1003C0000A6802F8010B0A607047754600F02CF8C5
:1003D000AE4605006946534620F00700854618B032
:1003E00020B5FFF7E3FEBDE820404FF000064FF0D8
:1003F00000074FF000084FF0000B21F00701AC465A
:10040000ACE8C009ACE8C009ACE8C009ACE8C00978
:100410008D46704710B50446AFF300802046BDE816
:100420001040FFF7AFBE00000048704720000020DA
:1004300001491820ABBEFEE726000200704721B13B
:10044000826842F00102826003E0826822F00102C9
:10045000826070470146C86C80B2704730B5024672
:100460000020002350680F4C20400D790C6844EAAE
:1004700005242043506090680B4C2040D1E9025481
:100480002C434D7944EA450420439060D06A20F41F
:1004900070000C7C641EE4B2234340EA0350D06237
:1004A00030BD0000FFFEF0FFFDF7F1FFF0B50446A0
:1004B0000D4600200021092D11DDE068A5F10A0696
:1004C00006EB4607072606FA07F18843A5F10A0658
:1004D00006EB460603FA06F10843E0600CE02069EB
:1004E00005EB4507072606FA07F1884305EB4506A5
:1004F00003FA06F108432061072A0FDA606B561EE3
:1005000006EB86071F2606FA07F18843561E06EB00
:10051000860605FA06F10843606322E00D2A0FDA29
:10052000206BD61F06EB86071F2606FA07F18843C5
:10053000D61F06EB860605FA06F10843206310E095
:10054000E06AA2F10D0606EB86071F2606FA07F100
:100550008843A2F10D0606EB860605FA06F108436C
:10056000E062F0BD21B1826842F4A002826003E043
:10057000826822F4A00282607047000000B587B054
:100580000121480200F0E2F90121042000F0DEF927
:100590000120ADF8180000208DF81B0003208DF815
:1005A0001A0006A9124800F071F8002001908DF899
:1005B000080001208DF809004FF46020039000200E
:1005C000049001208DF8140001A90A48FFF746FFA6
:1005D0000523012200210748FFF768FF0121054894
:1005E000FFF72DFF01210348FFF7BCFF07B000BD57
:1005F000000801400024014070B500F037FA1448AB
:100600000068144AB0FBF2F1B1F1807F00D31DE025
:1006100021F07F40401E4FF0E022506150170F2222
:10062000002807DA13071D0E0B4B00F00F04241FE0
:100630001D5503E013071C0E084B1C5400BF00207F
:100640004FF0E02290610720106100BF70BD0000F4
:100650000C00002040420F0018ED00E000E400E034
:1006600000B5024603E04FF47A7000F005F8101E62
:10067000A2F10102F7D100BD0349086000BF0249A1
:1006800009680029FBD17047080000202DE9F041DE
:10069000024600250026002000230024002791F8B0
:1006A00003C00CF00F0591F803C00CF0100CBCF166
:1006B000000F03D091F802C04CEA050591F800C084
:1006C000BCF1000F31D0146800202BE04FF0010C7A
:1006D0000CFA00F3B1F800C00CEA03069E4220D1E8
:1006E00083004FF00F0C0CFA03F7BC4305FA03FC30
:1006F0004CEA040491F803C0BCF1280F06D14FF076
:10070000010C0CFA00FCC2F814C00AE091F803C016
:10071000BCF1480F05D14FF0010C0CFA00FCC2F8F7
:1007200010C0401C0828D1D31460B1F800C0BCF13F
:10073000FF0F34DD546800202EE000F1080C4FF06C
:10074000010808FA0CF3B1F800C00CEA03069E4257
:1007500021D183004FF00F0C0CFA03F7BC4305FACC
:1007600003FC4CEA040491F803C0BCF1280F05D146
:1007700000F1080C08FA0CF8C2F8148091F803C0D4
:10078000BCF1480F07D100F1080C4FF0010808FA3E
:100790000CF8C2F81080401C0828CED35460BDE885
:1007A000F081000008B50121142000F0CFF80022EC
:1007B0004FF430610F4800F025F800224FF46041FB
:1007C0000D4800F01FF810208DF803004FF4706002
:1007D000ADF8000001208DF8020069460548FFF7DA
:1007E00055FF4FF46040ADF8000069460248FFF73E
:1007F0004DFF08BD000801400010014041617047F5
:10080000016170470AB1016100E041617047000079
:1008100010B54FF400410748FFF7F2FF0120FFF742
:100820001FFF4FF400410348FFF7E8FF0120FFF7E7
:1008300017FF10BD0010014070B506460C461CB9EC
:1008400006F18000C5B204E0012C02D106F1C0001F
:10085000C5B2284600F06CF870BD000010B5FFF777
:10086000A1FF002000F042F800224FF400510F4891
:10087000FFF7C8FF032000F039F8FFF7C9FFFFF7C3
:10088000C7FFFFF7C5FF022000F030F8FFF7C0FFF9
:10089000282000F04DF80C2000F04AF8062000F067
:1008A00047F8012000F044F810BD0000001001409E
:1008B00010B504464FF400510548FFF7A1FF20464C
:1008C00000F036F84FF400510148FFF797FF10BDD4
:1008D0000010014010B5044603E02078FFF7E8FF60
:1008E000641C20780028F8D110BD000010B5044623
:1008F00004F001024FF480710C48FFF783FFC4F34A
:1009000040024FF400710948FFF77CFFC4F38002F6
:100910004FF480610548FFF775FFC4F3C0024FF440
:1009200000610248FFF76EFF10BD000000080140A3
:1009300010B504462011FFF7D9FFFFF769FF2046E5
:10094000FFF7D4FFFFF764FF10BD000029B1064A8E
:1009500092690243044B9A6104E0034A926982431C
:10096000014B9A61704700000010024010B500F082
:1009700001F810BD0CB500200190009033480068CC
:1009800040F480303149086000BF3048006800F40E
:10099000003000900198401C0190009818B901980F
:1009A000B0F5A06FF1D12948006800F4003010B113
:1009B0000120009001E0002000900098012843D120
:1009C0002348006840F0100021490860084600688C
:1009D00020F0030008600846006840F0020008604C
:1009E0001A48406819494860084640684860084607
:1009F000406840F4806048600846406820F47C10FD
:100A000048600846406840F4E810486008460068BE
:100A100040F08070086000BF0C48006800F0007073
:100A20000028F9D00948406820F0030007494860D1
:100A30000846406840F00200486000BF0348406834
:100A400000F00C000828F9D10CBD00000010024095
:100A5000002002400448006820B103480068401E9E
:100A600001490860704700000800002010B500210F
:100A700000200022214B5B6803F00C0121B1042906
:100A800006D0082928D107E01D4B1E4C236027E023
:100A90001B4B1C4C236023E0184B5B6803F4701065
:100AA000164B5B6803F48032022303EB904022B9BB
:100AB000154B4343134C23600DE0104B5B6803F46C
:100AC000003323B1104B43430E4C236003E00C4B27
:100AD00043430C4C236003E0094B0A4C236000BFE6
:100AE00000BF064B5B68C3F30313084CE15C054B86
:100AF0001B68CB40034C236010BD00000010024077
:100B000000127A000C00002000093D0010000020B7
:100B100010B51348006840F001001149086008460C
:100B20004068104908400E494860084600680E4970
:100B300008400B4908600846006820F480200860DF
:100B40000846406820F4FE0048604FF41F008860AB
:100B5000FFF70CFF4FF000600449086010BD000073
:100B6000001002400000FFF8FFFFF6FE08ED00E075
:100B7000FFF742FDFFF772FEFFF700FD3EE00020A9
:100B80001F49088000240EE01E48FFF763FC1E4941
:100B900008801B48008809880844194908800120FA
:100BA000FFF75EFD641C0A2CEEDB154800880A2165
:100BB00090FBF1F0124908800988642201FB02F0E1
:100BC000C11700EB11510913104A11801046028819
:100BD0000FA11148FFF7FCFA00210846FFF72CFE91
:100BE0000EA0FFF777FE01210020FFF725FE0A483F
:100BF000FFF770FE4FF4FA70FFF732FDBFE7000019
:100C00000200002000240140000000200400002019
:100C10002564202A43000000060000205048414E71
:100C2000205452414D204249454E2054524F00001D
:100C3000500C0008000000202000000028010008DF
:100C4000700C00082000002060060000440100082D
:100C500000000000000000000000000000A24A04A4
:100C6000000000000000000001020304060708095C
:04000005080000ED02
:00000001FF
